:100000000C9434000C9446000C9446000C9446006A
:100010000C9446000C946F000C9446000C9446001F
:100020000C9446000C9446000C9446000C94460038
:100030000C9446000C9446000C9446000C94460028
:100040000C9446000C9446000C9446000C94460018
:100050000C9446000C9446000C9446000C94460008
:100060000C9446000C94460011241FBECFEFD8E03C
:10007000DEBFCDBF21E0A0E0B1E001C01D92A53000
:10008000B207E1F70E94C4000C9400010C94000038
:100090001092C50088E68093C40088E08093C10078
:1000A00086E08093C20008959091C00095FFFCCF38
:1000B0008093C60008950F931F93CF93DF93EC01B5
:1000C0008C01060F111DC017D10729F4DF91CF91C4
:1000D0001F910F91089589910E945400F4CF1F92AF
:1000E0001FB61F9211242F933F938F939F93AF932B
:1000F000BF934A993FC0809168008B7F80936800CE
:100100002AE12A95F1F700C028E1A0E0B0E0CD0196
:100110005B9A3AE03A95F1F700C0880F991FAA1F41
:10012000BB1F5B983AE03A95F1F700C04A9B03C0C9
:100130000196A11DB11D215059F75B9A25E02A9522
:10014000F1F700005B9835E03A95F1F70000A7FD64
:10015000BFEF8093010190930201A0930301B0933C
:10016000040181E080930001DA9A80916800846044
:1001700080936800BF91AF919F918F913F912F9194
:100180001F901FBE1F90189500D000D000D0CDB793
:10019000DEB75298539A5B980E944800809168009D
:1001A00084608093680080916D00846080936D000E
:1001B00078941AEA809100018115E1F31092000110
:1001C0001983609101017091020180910301909166
:1001D00004010E94F9006A837B838C839D83760FE0
:1001E000780F790F7E8366E0CE0101960E945B0056
:1001F000E1CF6927962769277827872778270895E9
:04020000F894FFCFA0
:00000001FF
