:100000000C9434000C9449000C9449000C94490061
:100010000C9449000C9449000C9449000C9449003C
:100020000C9449000C9449000C9449000C9449002C
:100030000C9449000C9449000C9449000C9449001C
:100040000C9449000C9449000C9449000C9449000C
:100050000C9449000C9449000C9449000C944900FC
:100060000C9449000C94490011241FBECFEFD8E036
:10007000DEBFCDBF11E0A0E0B1E0EAEFF0E002C0EA
:1000800005900D92AE31B107D9F70E946B000C9428
:100090007B000C9400001092C50087E68093C4009A
:1000A00088E18093C10086E08093C200089590911A
:1000B000C00095FFFCCF8093C6000895CF93DF93D7
:1000C000EC018881811103C0DF91CF9108952196C1
:1000D0000E945700F6CF0E944B0080E091E00E9402
:1000E0005E002FEF83E294EF215080409040E1F7D3
:0A00F00000C00000F2CFF894FFCF2B
:1000FA0048656C6C6F2066726F6D20426172652D67
:0E010A004D6574616C2055415254210D0A0060
:00000001FF
