:100000000C9434000C943E000C943E000C943E0082
:100010000C943E000C943E000C943E000C943E0068
:100020000C943E000C943E000C943E000C943E0058
:100030000C943E000C943E000C943E000C943E0048
:100040000C943E000C943E000C943E000C943E0038
:100050000C943E000C943E000C943E000C943E0028
:100060000C943E000C943E0011241FBECFEFD8E04C
:10007000DEBFCDBF0E9480000C94AC000C94000049
:100080001092C50088E68093C40088E08093C10088
:1000900086E08093C20008959091C00095FFFCCF48
:1000A0008093C60008954A99FECF2AE02A95F1F779
:1000B00000C028E180E090E0BC015B9A3AE03A950C
:1000C000F1F700C0660F771F881F991F5B983AE011
:1000D0003A95F1F700C04A9B04C06F5F7F4F8F4F86
:1000E0009F4F215051F75B9A25E02A95F1F70000C8
:1000F0005B9835E03A95F1F7000087FD9FEF089592
:1001000000D000D0CDB7DEB75298539A5B9860E824
:1001100075E280E090E00E9440000E9453006983F5
:100120007A838B839C838AEA0E944C008C810E9494
:100130004C008B810E944C008A810E944C00898176
:100140000E944C002FEF87EE93E0215080409040BA
:0C015000E1F700C00000E1CFF894FFCF01
:00000001FF
