:100000000C9434000C9449000C9449000C94490061
:100010000C9449000C9449000C9449000C9449003C
:100020000C9449000C9449000C9449000C9449002C
:100030000C9449000C9449000C9449000C9449001C
:100040000C9449000C9449000C9449000C9449000C
:100050000C9449000C9449000C9449000C944900FC
:100060000C9449000C94490011241FBECFEFD8E036
:10007000DEBFCDBF11E0A0E0B1E0E2EEF7E002C0EC
:1000800005900D92A630B107D9F70E94A1000C94FB
:10009000EF030C9400009B01AC0160E472E48FE07C
:1000A00090E00E94D500215031093093C500209383
:1000B000C40088E08093C10086E08093C200089568
:1000C0009091C00095FFFCCF8093C6000895CF9318
:1000D000DF93EC018881811103C0DF91CF910895F6
:1000E00021960E946000F6CF4A99FECF2AE02A9519
:1000F000F1F700C028E180E090E0BC015B9A3AE0B3
:100100003A95F1F700C0660F771F881F991F5B981B
:100110003AE03A95F1F700C04A9B04C06F5F7F4F09
:100120008F4F9F4F215051F75B9A25E02A95F1F7A9
:1001300000005B9835E03A95F1F7000087FD9FEFEE
:100140000895CDB7DEB7A0970FB6F894DEBF0FBE07
:10015000CDBF5298539A5B9860E875E280E090E0DA
:100160000E944B008E010F5F1F4F0E9474009F93EF
:100170008F937F936F9380E091E09F938F931F9372
:100180000F930E94F700C8010E9467008FEF97EE5F
:1001900023E0815090402040E1F700C000000FB6FE
:1001A000F894DEBF0FBECDBFE0CFA1E21A2EAA1B8E
:1001B000BB1BFD010DC0AA1FBB1FEE1FFF1FA21717
:1001C000B307E407F50720F0A21BB30BE40BF50B14
:1001D000661F771F881F991F1A9469F7609570959D
:1001E000809590959B01AC01BD01CF010895AEE0D3
:1001F000B0E0EDEFF0E00C94C80386E08C832B892F
:100200003C8929833A838FEF9FE78D839E83AE01DC
:10021000495E5F4F6D897E89CE0101960E941B0168
:10022000EF81F8852B893C89E20FF31F10822E960F
:10023000E2E00C94E403ABE0B0E0E1E2F1E00C9426
:10024000BB036C017B018A01FC011682178283814A
:1002500081FFDFC13AE0532EF6012381F70123FD30
:10026000859123FF81917F01811509F437C1853282
:1002700039F423FD959123FF91917F01953229F463
:10028000B60190E00E942203E7CF30E0912C612C70
:10029000712CF0E27F1640F59B32D9F058F4903281
:1002A000D1F09332F1F09E3291F576FC17C168944B
:1002B00076F806C09D3291F09033C1F4689470F8DE
:1002C000F70123FD959123FF91917F019111E1CFDA
:1002D00028C0689471F8689472F8F2CF689473F843
:1002E000EFCF689474F8ECCF77FC1BC080ED890FDA
:1002F0008A30C8F676FE05C0959C800D1124982E94
:10030000DFCF659C800D1124682E7F2AD9CF9C36C3
:1003100019F4689477F8D4CF9C3409F445C0983622
:1003200079F2892F8F7D8554833008F43FC093364E
:1003300009F461C0933709F46BC0933509F477C0B1
:10034000943619F0993609F0A4C0F80177FE9AC0E6
:1003500061917191819191918F01272D2F76822E3C
:1003600097FF04C00E94B003689487F82AE030E049
:100370005E014FEFA41AB40AA5010E945203782E21
:100380007A1886FECFC0882D8E7F791408F0C9C0F8
:1003900084FE1DC182FC11C12EEE8222B92C882D53
:1003A000867809F4CBC00EC131E08ACF311501F156
:1003B000085F1F4F8FE3898321E0822E912C5E011D
:1003C0002FEFA21AB20AE89477F873FC03C08614E0
:1003D0009104F0F18114910409F041C0611409F411
:1003E0003BCFB60180E290E00E9422036A94F6CFF0
:1003F0000C5F1F4FDFCFF801808189830E5F1F4F95
:1004000091E0892E912C5E01FFEFAF1ABF0ADBCF7E
:10041000F801A190B1908F01692D70E076FC02C0C7
:100420006FEF7FEFC5010E9417034C01CCCFF8019D
:10043000A190B1908F01692D70E076FC02C06FEF42
:100440007FEFC5010E940C034C01689477F8BDCF83
:10045000B60180E290E00E9422036A94B8CFF501D1
:1004600077FC859177FE81915F01B60190E00E9453
:10047000220381E0611001C080E0681AF1E08F1A68
:100480009108A8CF61917191872F880F880B982FC1
:1004900063CF9537C9F4872CE89484F82AE030E0DC
:1004A000F80187FE39C061917191819191918F011D
:1004B0005E01FFEFAF1ABF0AA5010E945203782E1A
:1004C0007A18E89487F85DCF872D897F882E90373A
:1004D00099F058F49835A9F09F36D9F0F601868145
:1004E00097812B96EFE00C94D7039837B9F774FCFB
:1004F00005C020E130E0D4CF689484F8689482F895
:10050000F8CF74FE03C0E72DE6608E2E20E132E0C6
:10051000C7CF28E030E0C4CF6191719180E090E0D6
:10052000C6CF882EB72C84FE3ACFFE01E70DF11D11
:100530008081803309F044C049EE842283FC0EC0E0
:1005400080FE51C0972CB61418F4960C9B18B62C4C
:10055000862D8B196B1408F480E0B80EB61408F0E1
:1005600044C06B1884FE43C0B60180E390E00E9453
:10057000220382FE09C088E590E081FC02C088E782
:1005800090E0B6010E9422037914E0F15E018FEF42
:10059000A81AB80A7A9482E0882E912C8C0E9D1E9F
:1005A000870C911CF40182914F01B60190E00E94EA
:1005B00022038A149B04B1F711CFB92C882EB5CF32
:1005C00082FC02C0B394BACFB394B394B7CFB92C22
:1005D000882EE5CEB60180E290E00E942203A3942B
:1005E000A614C0F3B5CFAB2CFBCF612CBBCF882DAD
:1005F000867851F280E281FC8BE287FC8DE2B601C5
:1006000090E0C0CFB60180E390E00E9422039A946C
:10061000BBCF8FEF9FEF65CFFC010590615070401D
:100620000110D8F7809590958E0F9F1F0895FC01BB
:100630006150704001900110D8F7809590958E0F11
:100640009F1F08950F931F93CF93DF93182F092FA8
:10065000EB018B8181FD09C00FEF1FEF812F902FE0
:10066000DF91CF911F910F91089582FF14C02E81C9
:100670003F818C819D81281739073CF4E881F981FD
:10068000CF0101968883998310838E819F81019683
:100690008E839F83E3CFE885F985812F0995892B88
:1006A000A1F3DACFFA01AA27283051F1203181F1E4
:1006B000E8946F936E7F6E5F7F4F8F4F9F4FAF4F6A
:1006C000B1E03ED0B4E03CD0670F781F891F9A1F7D
:1006D000A11D680F791F8A1F911DA11D6A0F711D31
:1006E000811D911DA11D20D009F468943F912AE03D
:1006F000269F11243019305D3193DEF6CF01089525
:10070000462F4770405D4193B3E00FD0C9F7F6CF55
:10071000462F4F70405D4A3318F0495D31FD40521D
:10072000419302D0A9F7EACFB4E0A69597958795B3
:1007300077956795BA95C9F7009761057105089592
:100740009B01AC010A2E069457954795379527953E
:10075000BA95C9F7620F731F841F951FA01D0895D6
:1007600090958095709561957F4F8F4F9F4F08951D
:100770002F923F924F925F926F927F928F929F92B1
:10078000AF92BF92CF92DF92EF92FF920F931F939F
:10079000CF93DF93CDB7DEB7CA1BDB0B0FB6F89450
:1007A000DEBF0FBECDBF09942A88398848885F8490
:1007B0006E847D848C849B84AA84B984C884DF8001
:1007C000EE80FD800C811B81AA81B981CE0FD11DE5
:1007D0000FB6F894DEBF0FBECDBFED010895F894BB
:0207E000FFCF49
:0607E200256C640D0A0005
:00000001FF
